{
  "_format": "hh-sol-artifact-1",
  "contractName": "ChainTorqueMarketplace",
  "sourceName": "contracts/ChainTorqueMarketplace.sol",
  "abi": [
    {
      "inputs": [],
      "stateMutability": "nonpayable",
      "type": "constructor"
    },
    {
      "anonymous": false,
      "inputs": [
        {
          "indexed": true,
          "internalType": "address",
          "name": "owner",
          "type": "address"
        },
        {
          "indexed": true,
          "internalType": "address",
          "name": "approved",
          "type": "address"
        },
        {
          "indexed": true,
          "internalType": "uint256",
          "name": "tokenId",
          "type": "uint256"
        }
      ],
      "name": "Approval",
      "type": "event"
    },
    {
      "anonymous": false,
      "inputs": [
        {
          "indexed": true,
          "internalType": "address",
          "name": "owner",
          "type": "address"
        },
        {
          "indexed": true,
          "internalType": "address",
          "name": "operator",
          "type": "address"
        },
        {
          "indexed": false,
          "internalType": "bool",
          "name": "approved",
          "type": "bool"
        }
      ],
      "name": "ApprovalForAll",
      "type": "event"
    },
    {
      "anonymous": false,
      "inputs": [
        {
          "indexed": true,
          "internalType": "uint256",
          "name": "startTokenId",
          "type": "uint256"
        },
        {
          "indexed": true,
          "internalType": "uint256",
          "name": "count",
          "type": "uint256"
        },
        {
          "indexed": true,
          "internalType": "address",
          "name": "seller",
          "type": "address"
        }
      ],
      "name": "BatchItemsCreated",
      "type": "event"
    },
    {
      "anonymous": false,
      "inputs": [
        {
          "indexed": false,
          "internalType": "uint256",
          "name": "_fromTokenId",
          "type": "uint256"
        },
        {
          "indexed": false,
          "internalType": "uint256",
          "name": "_toTokenId",
          "type": "uint256"
        }
      ],
      "name": "BatchMetadataUpdate",
      "type": "event"
    },
    {
      "anonymous": false,
      "inputs": [
        {
          "indexed": true,
          "internalType": "address",
          "name": "creator",
          "type": "address"
        },
        {
          "indexed": false,
          "internalType": "bool",
          "name": "authorized",
          "type": "bool"
        }
      ],
      "name": "CreatorAuthorized",
      "type": "event"
    },
    {
      "anonymous": false,
      "inputs": [
        {
          "indexed": true,
          "internalType": "uint256",
          "name": "tokenId",
          "type": "uint256"
        },
        {
          "indexed": true,
          "internalType": "address",
          "name": "owner",
          "type": "address"
        },
        {
          "indexed": false,
          "internalType": "uint64",
          "name": "timestamp",
          "type": "uint64"
        }
      ],
      "name": "MarketItemBurned",
      "type": "event"
    },
    {
      "anonymous": false,
      "inputs": [
        {
          "indexed": true,
          "internalType": "uint256",
          "name": "tokenId",
          "type": "uint256"
        },
        {
          "indexed": true,
          "internalType": "address",
          "name": "seller",
          "type": "address"
        },
        {
          "indexed": true,
          "internalType": "uint128",
          "name": "price",
          "type": "uint128"
        },
        {
          "indexed": false,
          "internalType": "uint32",
          "name": "category",
          "type": "uint32"
        },
        {
          "indexed": false,
          "internalType": "uint256",
          "name": "timestamp",
          "type": "uint256"
        }
      ],
      "name": "MarketItemCreated",
      "type": "event"
    },
    {
      "anonymous": false,
      "inputs": [
        {
          "indexed": true,
          "internalType": "uint256",
          "name": "tokenId",
          "type": "uint256"
        },
        {
          "indexed": true,
          "internalType": "address",
          "name": "seller",
          "type": "address"
        },
        {
          "indexed": true,
          "internalType": "uint128",
          "name": "price",
          "type": "uint128"
        }
      ],
      "name": "MarketItemRelisted",
      "type": "event"
    },
    {
      "anonymous": false,
      "inputs": [
        {
          "indexed": true,
          "internalType": "uint256",
          "name": "tokenId",
          "type": "uint256"
        },
        {
          "indexed": true,
          "internalType": "address",
          "name": "seller",
          "type": "address"
        },
        {
          "indexed": true,
          "internalType": "address",
          "name": "buyer",
          "type": "address"
        },
        {
          "indexed": false,
          "internalType": "uint128",
          "name": "price",
          "type": "uint128"
        }
      ],
      "name": "MarketItemSold",
      "type": "event"
    },
    {
      "anonymous": false,
      "inputs": [
        {
          "indexed": false,
          "internalType": "uint256",
          "name": "_tokenId",
          "type": "uint256"
        }
      ],
      "name": "MetadataUpdate",
      "type": "event"
    },
    {
      "anonymous": false,
      "inputs": [
        {
          "indexed": true,
          "internalType": "address",
          "name": "previousOwner",
          "type": "address"
        },
        {
          "indexed": true,
          "internalType": "address",
          "name": "newOwner",
          "type": "address"
        }
      ],
      "name": "OwnershipTransferred",
      "type": "event"
    },
    {
      "anonymous": false,
      "inputs": [
        {
          "indexed": false,
          "internalType": "address",
          "name": "account",
          "type": "address"
        }
      ],
      "name": "Paused",
      "type": "event"
    },
    {
      "anonymous": false,
      "inputs": [
        {
          "indexed": true,
          "internalType": "uint256",
          "name": "tokenId",
          "type": "uint256"
        },
        {
          "indexed": false,
          "internalType": "uint24",
          "name": "royalty",
          "type": "uint24"
        }
      ],
      "name": "RoyaltyUpdated",
      "type": "event"
    },
    {
      "anonymous": false,
      "inputs": [
        {
          "indexed": true,
          "internalType": "address",
          "name": "from",
          "type": "address"
        },
        {
          "indexed": true,
          "internalType": "address",
          "name": "to",
          "type": "address"
        },
        {
          "indexed": true,
          "internalType": "uint256",
          "name": "tokenId",
          "type": "uint256"
        }
      ],
      "name": "Transfer",
      "type": "event"
    },
    {
      "anonymous": false,
      "inputs": [
        {
          "indexed": false,
          "internalType": "address",
          "name": "account",
          "type": "address"
        }
      ],
      "name": "Unpaused",
      "type": "event"
    },
    {
      "inputs": [],
      "name": "LISTING_PRICE",
      "outputs": [
        {
          "internalType": "uint256",
          "name": "",
          "type": "uint256"
        }
      ],
      "stateMutability": "view",
      "type": "function"
    },
    {
      "inputs": [],
      "name": "MAX_BATCH_SIZE",
      "outputs": [
        {
          "internalType": "uint256",
          "name": "",
          "type": "uint256"
        }
      ],
      "stateMutability": "view",
      "type": "function"
    },
    {
      "inputs": [],
      "name": "PLATFORM_FEE_BPS",
      "outputs": [
        {
          "internalType": "uint256",
          "name": "",
          "type": "uint256"
        }
      ],
      "stateMutability": "view",
      "type": "function"
    },
    {
      "inputs": [
        {
          "internalType": "address",
          "name": "to",
          "type": "address"
        },
        {
          "internalType": "uint256",
          "name": "tokenId",
          "type": "uint256"
        }
      ],
      "name": "approve",
      "outputs": [],
      "stateMutability": "nonpayable",
      "type": "function"
    },
    {
      "inputs": [
        {
          "internalType": "address",
          "name": "owner",
          "type": "address"
        }
      ],
      "name": "balanceOf",
      "outputs": [
        {
          "internalType": "uint256",
          "name": "",
          "type": "uint256"
        }
      ],
      "stateMutability": "view",
      "type": "function"
    },
    {
      "inputs": [
        {
          "internalType": "string[]",
          "name": "tokenURIs",
          "type": "string[]"
        },
        {
          "internalType": "uint128[]",
          "name": "prices",
          "type": "uint128[]"
        },
        {
          "internalType": "uint32[]",
          "name": "categories",
          "type": "uint32[]"
        },
        {
          "internalType": "uint24[]",
          "name": "royalties",
          "type": "uint24[]"
        }
      ],
      "name": "batchCreateTokens",
      "outputs": [],
      "stateMutability": "payable",
      "type": "function"
    },
    {
      "inputs": [
        {
          "internalType": "uint256[]",
          "name": "tokenIds",
          "type": "uint256[]"
        }
      ],
      "name": "batchPurchaseTokens",
      "outputs": [],
      "stateMutability": "payable",
      "type": "function"
    },
    {
      "inputs": [
        {
          "internalType": "uint256",
          "name": "tokenId",
          "type": "uint256"
        }
      ],
      "name": "burn",
      "outputs": [],
      "stateMutability": "nonpayable",
      "type": "function"
    },
    {
      "inputs": [
        {
          "internalType": "string",
          "name": "tokenURI",
          "type": "string"
        },
        {
          "internalType": "uint128",
          "name": "price",
          "type": "uint128"
        },
        {
          "internalType": "uint32",
          "name": "category",
          "type": "uint32"
        },
        {
          "internalType": "uint24",
          "name": "royalty",
          "type": "uint24"
        }
      ],
      "name": "createToken",
      "outputs": [
        {
          "internalType": "uint256",
          "name": "",
          "type": "uint256"
        }
      ],
      "stateMutability": "payable",
      "type": "function"
    },
    {
      "inputs": [
        {
          "internalType": "uint256",
          "name": "tokenId",
          "type": "uint256"
        },
        {
          "internalType": "address",
          "name": "to",
          "type": "address"
        }
      ],
      "name": "emergencyTokenRecovery",
      "outputs": [],
      "stateMutability": "nonpayable",
      "type": "function"
    },
    {
      "inputs": [],
      "name": "fetchMarketItems",
      "outputs": [
        {
          "components": [
            {
              "internalType": "uint256",
              "name": "tokenId",
              "type": "uint256"
            },
            {
              "internalType": "uint128",
              "name": "price",
              "type": "uint128"
            },
            {
              "internalType": "uint64",
              "name": "createdAt",
              "type": "uint64"
            },
            {
              "internalType": "uint32",
              "name": "category",
              "type": "uint32"
            },
            {
              "internalType": "uint24",
              "name": "royalty",
              "type": "uint24"
            },
            {
              "internalType": "bool",
              "name": "sold",
              "type": "bool"
            },
            {
              "internalType": "address",
              "name": "seller",
              "type": "address"
            },
            {
              "internalType": "address",
              "name": "owner",
              "type": "address"
            },
            {
              "internalType": "address",
              "name": "creator",
              "type": "address"
            }
          ],
          "internalType": "struct ChainTorqueMarketplace.MarketItem[]",
          "name": "",
          "type": "tuple[]"
        }
      ],
      "stateMutability": "view",
      "type": "function"
    },
    {
      "inputs": [
        {
          "internalType": "uint256",
          "name": "tokenId",
          "type": "uint256"
        }
      ],
      "name": "getApproved",
      "outputs": [
        {
          "internalType": "address",
          "name": "",
          "type": "address"
        }
      ],
      "stateMutability": "view",
      "type": "function"
    },
    {
      "inputs": [],
      "name": "getCurrentTokenId",
      "outputs": [
        {
          "internalType": "uint256",
          "name": "",
          "type": "uint256"
        }
      ],
      "stateMutability": "view",
      "type": "function"
    },
    {
      "inputs": [],
      "name": "getListingPrice",
      "outputs": [
        {
          "internalType": "uint256",
          "name": "",
          "type": "uint256"
        }
      ],
      "stateMutability": "pure",
      "type": "function"
    },
    {
      "inputs": [
        {
          "internalType": "uint256",
          "name": "tokenId",
          "type": "uint256"
        }
      ],
      "name": "getMarketItem",
      "outputs": [
        {
          "components": [
            {
              "internalType": "uint256",
              "name": "tokenId",
              "type": "uint256"
            },
            {
              "internalType": "uint128",
              "name": "price",
              "type": "uint128"
            },
            {
              "internalType": "uint64",
              "name": "createdAt",
              "type": "uint64"
            },
            {
              "internalType": "uint32",
              "name": "category",
              "type": "uint32"
            },
            {
              "internalType": "uint24",
              "name": "royalty",
              "type": "uint24"
            },
            {
              "internalType": "bool",
              "name": "sold",
              "type": "bool"
            },
            {
              "internalType": "address",
              "name": "seller",
              "type": "address"
            },
            {
              "internalType": "address",
              "name": "owner",
              "type": "address"
            },
            {
              "internalType": "address",
              "name": "creator",
              "type": "address"
            }
          ],
          "internalType": "struct ChainTorqueMarketplace.MarketItem",
          "name": "",
          "type": "tuple"
        }
      ],
      "stateMutability": "view",
      "type": "function"
    },
    {
      "inputs": [],
      "name": "getMarketplaceStats",
      "outputs": [
        {
          "internalType": "uint256",
          "name": "totalItems",
          "type": "uint256"
        },
        {
          "internalType": "uint256",
          "name": "totalSold",
          "type": "uint256"
        },
        {
          "internalType": "uint256",
          "name": "totalActive",
          "type": "uint256"
        },
        {
          "internalType": "uint256",
          "name": "totalValue",
          "type": "uint256"
        }
      ],
      "stateMutability": "view",
      "type": "function"
    },
    {
      "inputs": [
        {
          "internalType": "uint32",
          "name": "category",
          "type": "uint32"
        }
      ],
      "name": "getTokensByCategory",
      "outputs": [
        {
          "internalType": "uint256[]",
          "name": "",
          "type": "uint256[]"
        }
      ],
      "stateMutability": "view",
      "type": "function"
    },
    {
      "inputs": [
        {
          "internalType": "address",
          "name": "user",
          "type": "address"
        }
      ],
      "name": "getUserTokens",
      "outputs": [
        {
          "internalType": "uint256[]",
          "name": "",
          "type": "uint256[]"
        }
      ],
      "stateMutability": "view",
      "type": "function"
    },
    {
      "inputs": [
        {
          "internalType": "address",
          "name": "owner",
          "type": "address"
        },
        {
          "internalType": "address",
          "name": "operator",
          "type": "address"
        }
      ],
      "name": "isApprovedForAll",
      "outputs": [
        {
          "internalType": "bool",
          "name": "",
          "type": "bool"
        }
      ],
      "stateMutability": "view",
      "type": "function"
    },
    {
      "inputs": [
        {
          "internalType": "address",
          "name": "creator",
          "type": "address"
        }
      ],
      "name": "isAuthorizedCreator",
      "outputs": [
        {
          "internalType": "bool",
          "name": "",
          "type": "bool"
        }
      ],
      "stateMutability": "view",
      "type": "function"
    },
    {
      "inputs": [],
      "name": "name",
      "outputs": [
        {
          "internalType": "string",
          "name": "",
          "type": "string"
        }
      ],
      "stateMutability": "view",
      "type": "function"
    },
    {
      "inputs": [],
      "name": "owner",
      "outputs": [
        {
          "internalType": "address",
          "name": "",
          "type": "address"
        }
      ],
      "stateMutability": "view",
      "type": "function"
    },
    {
      "inputs": [
        {
          "internalType": "uint256",
          "name": "tokenId",
          "type": "uint256"
        }
      ],
      "name": "ownerOf",
      "outputs": [
        {
          "internalType": "address",
          "name": "",
          "type": "address"
        }
      ],
      "stateMutability": "view",
      "type": "function"
    },
    {
      "inputs": [],
      "name": "pause",
      "outputs": [],
      "stateMutability": "nonpayable",
      "type": "function"
    },
    {
      "inputs": [],
      "name": "paused",
      "outputs": [
        {
          "internalType": "bool",
          "name": "",
          "type": "bool"
        }
      ],
      "stateMutability": "view",
      "type": "function"
    },
    {
      "inputs": [
        {
          "internalType": "uint256",
          "name": "tokenId",
          "type": "uint256"
        }
      ],
      "name": "purchaseToken",
      "outputs": [],
      "stateMutability": "payable",
      "type": "function"
    },
    {
      "inputs": [
        {
          "internalType": "uint256",
          "name": "tokenId",
          "type": "uint256"
        },
        {
          "internalType": "uint128",
          "name": "price",
          "type": "uint128"
        }
      ],
      "name": "relistToken",
      "outputs": [],
      "stateMutability": "payable",
      "type": "function"
    },
    {
      "inputs": [],
      "name": "renounceOwnership",
      "outputs": [],
      "stateMutability": "nonpayable",
      "type": "function"
    },
    {
      "inputs": [
        {
          "internalType": "address",
          "name": "from",
          "type": "address"
        },
        {
          "internalType": "address",
          "name": "to",
          "type": "address"
        },
        {
          "internalType": "uint256",
          "name": "tokenId",
          "type": "uint256"
        }
      ],
      "name": "safeTransferFrom",
      "outputs": [],
      "stateMutability": "nonpayable",
      "type": "function"
    },
    {
      "inputs": [
        {
          "internalType": "address",
          "name": "from",
          "type": "address"
        },
        {
          "internalType": "address",
          "name": "to",
          "type": "address"
        },
        {
          "internalType": "uint256",
          "name": "tokenId",
          "type": "uint256"
        },
        {
          "internalType": "bytes",
          "name": "data",
          "type": "bytes"
        }
      ],
      "name": "safeTransferFrom",
      "outputs": [],
      "stateMutability": "nonpayable",
      "type": "function"
    },
    {
      "inputs": [
        {
          "internalType": "address",
          "name": "operator",
          "type": "address"
        },
        {
          "internalType": "bool",
          "name": "approved",
          "type": "bool"
        }
      ],
      "name": "setApprovalForAll",
      "outputs": [],
      "stateMutability": "nonpayable",
      "type": "function"
    },
    {
      "inputs": [
        {
          "internalType": "address",
          "name": "creator",
          "type": "address"
        },
        {
          "internalType": "bool",
          "name": "authorized",
          "type": "bool"
        }
      ],
      "name": "setCreatorAuthorization",
      "outputs": [],
      "stateMutability": "nonpayable",
      "type": "function"
    },
    {
      "inputs": [
        {
          "internalType": "bytes4",
          "name": "interfaceId",
          "type": "bytes4"
        }
      ],
      "name": "supportsInterface",
      "outputs": [
        {
          "internalType": "bool",
          "name": "",
          "type": "bool"
        }
      ],
      "stateMutability": "view",
      "type": "function"
    },
    {
      "inputs": [],
      "name": "symbol",
      "outputs": [
        {
          "internalType": "string",
          "name": "",
          "type": "string"
        }
      ],
      "stateMutability": "view",
      "type": "function"
    },
    {
      "inputs": [
        {
          "internalType": "uint256",
          "name": "tokenId",
          "type": "uint256"
        }
      ],
      "name": "tokenURI",
      "outputs": [
        {
          "internalType": "string",
          "name": "",
          "type": "string"
        }
      ],
      "stateMutability": "view",
      "type": "function"
    },
    {
      "inputs": [
        {
          "internalType": "address",
          "name": "from",
          "type": "address"
        },
        {
          "internalType": "address",
          "name": "to",
          "type": "address"
        },
        {
          "internalType": "uint256",
          "name": "tokenId",
          "type": "uint256"
        }
      ],
      "name": "transferFrom",
      "outputs": [],
      "stateMutability": "nonpayable",
      "type": "function"
    },
    {
      "inputs": [
        {
          "internalType": "address",
          "name": "newOwner",
          "type": "address"
        }
      ],
      "name": "transferOwnership",
      "outputs": [],
      "stateMutability": "nonpayable",
      "type": "function"
    },
    {
      "inputs": [],
      "name": "unpause",
      "outputs": [],
      "stateMutability": "nonpayable",
      "type": "function"
    },
    {
      "inputs": [],
      "name": "withdraw",
      "outputs": [],
      "stateMutability": "nonpayable",
      "type": "function"
    }
  ],
  "bytecode": "0x60806040523480156200001157600080fd5b506040518060400160405280600f81526020016e10da185a5b951bdc9c5d5948139195608a1b8152506040518060400160405280600381526020016243545160e81b8152508160009081620000679190620001ad565b506001620000768282620001ad565b505050620000936200008d620000b260201b60201c565b620000b6565b60016008556009805460ff191690556000600a819055600b5562000279565b3390565b600780546001600160a01b038381166001600160a01b0319831681179093556040519116919082907f8be0079c531659141344cd1fd0a4f28419497f9722a3daafe3b4186f6b6457e090600090a35050565b634e487b7160e01b600052604160045260246000fd5b600181811c908216806200013357607f821691505b6020821081036200015457634e487b7160e01b600052602260045260246000fd5b50919050565b601f821115620001a857600081815260208120601f850160051c81016020861015620001835750805b601f850160051c820191505b81811015620001a4578281556001016200018f565b5050505b505050565b81516001600160401b03811115620001c957620001c962000108565b620001e181620001da84546200011e565b846200015a565b602080601f831160018114620002195760008415620002005750858301515b600019600386901b1c1916600185901b178555620001a4565b600085815260208120601f198616915b828110156200024a5788860151825594840194600190910190840162000229565b5085821015620002695787850151600019600388901b60f8161c191681555b5050505050600190811b01905550565b613fa280620002896000396000f3fe6080604052600436106102305760003560e01c806370a082311161012e578063a441a5c9116100ab578063c87b56dd1161006f578063c87b56dd14610649578063cfdbf25414610669578063de7c8ede1461067e578063e985e9c514610691578063f2fde38b146106b157600080fd5b8063a441a5c9146105b6578063b88d4fde146105d6578063bd0c1961146105f6578063c2db2c4214610609578063c7be7a491461061c57600080fd5b80638456cb59116100f25780638456cb591461052e5780638da5cb5b1461054357806395d89b411461056157806396e3834a14610576578063a22cb4651461059657600080fd5b806370a082311461048a578063715018a6146104aa57806373956761146104bf57806379b53ebe146104d9578063812d966a146104f957600080fd5b80633f4ba83a116101bc578063539aa77f11610180578063539aa77f14610415578063561892361461042a5780635c975abb1461043f5780636352211e146104575780636737f8ec1461047757600080fd5b80633f4ba83a14610380578063417c72751461039557806342842e0e146103a857806342966c68146103c8578063519dc8d2146103e857600080fd5b80630f08efe0116102035780630f08efe0146102e657806312e85585146103085780631612119c1461032b57806323b872dd1461034b5780633ccfd60b1461036b57600080fd5b806301ffc9a71461023557806306fdde031461026a578063081812fc1461028c578063095ea7b3146102c4575b600080fd5b34801561024157600080fd5b50610255610250366004613444565b6106d1565b60405190151581526020015b60405180910390f35b34801561027657600080fd5b5061027f6106fc565b60405161026191906134b1565b34801561029857600080fd5b506102ac6102a73660046134c4565b61078e565b6040516001600160a01b039091168152602001610261565b3480156102d057600080fd5b506102e46102df3660046134f9565b6107b5565b005b3480156102f257600080fd5b506102fb6108cf565b60405161026191906135e0565b34801561031457600080fd5b5065e35fa931a0005b604051908152602001610261565b34801561033757600080fd5b506102e461034636600461362f565b610a98565b34801561035757600080fd5b506102e461036636600461366b565b610aff565b34801561037757600080fd5b506102e4610b30565b34801561038c57600080fd5b506102e4610b9b565b6102e46103a33660046136be565b610bad565b3480156103b457600080fd5b506102e46103c336600461366b565b610daa565b3480156103d457600080fd5b506102e46103e33660046134c4565b610dc5565b3480156103f457600080fd5b506104086104033660046136ea565b61107d565b6040516102619190613705565b34801561042157600080fd5b5061031d60fa81565b34801561043657600080fd5b50600a5461031d565b34801561044b57600080fd5b5060095460ff16610255565b34801561046357600080fd5b506102ac6104723660046134c4565b6110e9565b6102e4610485366004613788565b611149565b34801561049657600080fd5b5061031d6104a53660046136ea565b61145f565b3480156104b657600080fd5b506102e46114e5565b3480156104cb57600080fd5b5061031d65e35fa931a00081565b3480156104e557600080fd5b506102556104f43660046136ea565b6114f7565b34801561050557600080fd5b5061050e61152e565b604080519485526020850193909352918301526060820152608001610261565b34801561053a57600080fd5b506102e46115a4565b34801561054f57600080fd5b506007546001600160a01b03166102ac565b34801561056d57600080fd5b5061027f6115b4565b34801561058257600080fd5b506102e46105913660046137c9565b6115c3565b3480156105a257600080fd5b506102e46105b136600461362f565b611636565b3480156105c257600080fd5b506104086105d1366004613800565b611641565b3480156105e257600080fd5b506102e46105f1366004613831565b6116a8565b6102e461060436600461390c565b6116e0565b6102e46106173660046134c4565b611d36565b34801561062857600080fd5b5061063c6106373660046134c4565b61201d565b60405161026191906139cf565b34801561065557600080fd5b5061027f6106643660046134c4565b61210c565b34801561067557600080fd5b5061031d603281565b61031d61068c3660046139f1565b61221c565b34801561069d57600080fd5b506102556106ac366004613a93565b6125fd565b3480156106bd57600080fd5b506102e46106cc3660046136ea565b61262b565b60006001600160e01b03198216632483248360e11b14806106f657506106f6826126a1565b92915050565b60606000805461070b90613abd565b80601f016020809104026020016040519081016040528092919081815260200182805461073790613abd565b80156107845780601f1061075957610100808354040283529160200191610784565b820191906000526020600020905b81548152906001019060200180831161076757829003601f168201915b5050505050905090565b6000610799826126f1565b506000908152600460205260409020546001600160a01b031690565b60006107c0826110e9565b9050806001600160a01b0316836001600160a01b0316036108325760405162461bcd60e51b815260206004820152602160248201527f4552433732313a20617070726f76616c20746f2063757272656e74206f776e656044820152603960f91b60648201526084015b60405180910390fd5b336001600160a01b038216148061084e575061084e81336125fd565b6108c05760405162461bcd60e51b815260206004820152603d60248201527f4552433732313a20617070726f76652063616c6c6572206973206e6f7420746f60448201527f6b656e206f776e6572206f7220617070726f76656420666f7220616c6c0000006064820152608401610829565b6108ca8383612750565b505050565b600a54600b54606091906000906108e69083613b07565b905080600003610929576040805160008082526020820190925290610921565b61090e613394565b8152602001906001900390816109065790505b509250505090565b6000816001600160401b038111156109435761094361381b565b60405190808252806020026020018201604052801561097c57816020015b610969613394565b8152602001906001900390816109615790505b509050600060015b848111610a8e576000818152600c6020526040902060010154600160f81b900460ff16610a86576000818152600c60209081526040918290208251610120810184528154815260018201546001600160801b03811693820193909352600160801b83046001600160401b031693810193909352600160c01b820463ffffffff166060840152600160e01b820462ffffff166080840152600160f81b90910460ff16151560a083015260028101546001600160a01b0390811660c08401526003820154811660e0840152600490910154166101008201528351849084908110610a6e57610a6e613b1a565b602002602001018190525081610a8390613b30565b91505b600101610984565b5090949350505050565b610aa06127be565b6001600160a01b038216600081815260106020908152604091829020805460ff191685151590811790915591519182527f9e83c683653d7d83a1491bef63f43ca382573f28a92bdf78652b6cfb73713bb8910160405180910390a25050565b610b093382612818565b610b255760405162461bcd60e51b815260040161082990613b49565b6108ca838383612876565b610b386127be565b4780610b7d5760405162461bcd60e51b81526020600482015260146024820152734e6f2066756e647320746f20776974686472617760601b6044820152606401610829565b610b98610b926007546001600160a01b031690565b826129da565b50565b610ba36127be565b610bab612a73565b565b610bb5612ac5565b610bbd612b1e565b81600081118015610bd05750600a548111155b610bec5760405162461bcd60e51b815260040161082990613b96565b610bf63384612818565b610c3b5760405162461bcd60e51b8152602060048201526016602482015275139bdd081bdddb995c881b9bdc88185c1c1c9bdd995960521b6044820152606401610829565b6000838152600c6020526040902060010154600160f81b900460ff16610c995760405162461bcd60e51b8152602060048201526013602482015272125d195b48185b1c9958591e481b1a5cdd1959606a1b6044820152606401610829565b6000826001600160801b031611610cc25760405162461bcd60e51b815260040161082990613bc0565b65e35fa931a0003414610ce75760405162461bcd60e51b815260040161082990613bf0565b6000838152600c60205260409020610d00333086612876565b6001810180546001600160801b0385166effffffffffffffffffffffffffffff60801b9091161790556002810180546001600160a01b0319908116331790915560038201805490911630179055600b8054906000610d5d83613c1f565b90915550506040516001600160801b03841690339086907ffba3307b1473b0473d64575308bcb274c5c438216a758b4632b3baacffe1177590600090a45050610da66001600855565b5050565b6108ca838383604051806020016040528060008152506116a8565b610dcd612ac5565b610dd5612b1e565b80600081118015610de85750600a548111155b610e045760405162461bcd60e51b815260040161082990613b96565b610e0e3383612818565b610e535760405162461bcd60e51b8152602060048201526016602482015275139bdd081bdddb995c881b9bdc88185c1c1c9bdd995960521b6044820152606401610829565b6000610e5e836110e9565b6000848152600c60205260409020600181015491925090600160f81b900460ff16610eb0576001810180546001600160f81b0316600160f81b179055600b8054906000610eaa83613b30565b91905055505b6003810180546001600160a01b03191690556000848152600e60209081526040808320546001600160a01b0386168452600d909252909120548015801590610ef757508082105b8015610f3857506001600160a01b0384166000908152600d60205260409020805487919084908110610f2b57610f2b613b1a565b9060005260206000200154145b1561100d576001600160a01b0384166000908152600d60205260408120610f60600184613b07565b81548110610f7057610f70613b1a565b9060005260206000200154905080600d6000876001600160a01b03166001600160a01b031681526020019081526020016000208481548110610fb457610fb4613b1a565b6000918252602080832090910192909255828152600e825260408082208690556001600160a01b0388168252600d90925220805480610ff557610ff5613c36565b60019003818190600052602060002001600090559055505b6000868152600e602052604081205561102586612b64565b6040516001600160401b03421681526001600160a01b0385169087907f31518c28d41c8d9cce7da5df9fceec3f595a5b0ae07485cd7bab4282faaa0d439060200160405180910390a35050505050610b986001600855565b6001600160a01b0381166000908152600d60209081526040918290208054835181840281018401909452808452606093928301828280156110dd57602002820191906000526020600020905b8154815260200190600101908083116110c9575b50505050509050919050565b6000818152600260205260408120546001600160a01b0316806106f65760405162461bcd60e51b8152602060048201526018602482015277115490cdcc8c4e881a5b9d985b1a59081d1bdad95b88125160421b6044820152606401610829565b611151612ac5565b611159612b1e565b80801580159061116a575060328111155b6111ab5760405162461bcd60e51b8152602060048201526012602482015271496e76616c69642062617463682073697a6560701b6044820152606401610829565b600033815b8381101561125d576000600c60008888858181106111d0576111d0613b1a565b905060200201358152602001908152602001600020905080600101601f9054906101000a900460ff161561123a5760405162461bcd60e51b8152602060048201526011602482015270125d195b48185b1c9958591e481cdbdb19607a1b6044820152606401610829565b6001810154611252906001600160801b031685613c4c565b9350506001016111b0565b508134146112ad5760405162461bcd60e51b815260206004820152601760248201527f496e636f727265637420746f74616c207061796d656e740000000000000000006044820152606401610829565b60005b838110156114515760008686838181106112cc576112cc613b1a565b602090810292909201356000818152600c9093526040832060028101546001820180546003840180546001600160a01b0319166001600160a01b038c811691909117909155600160f81b6001600160f81b03831617909255600b805495985093969190921694506001600160801b039091169261134890613b30565b90915550611357308786612876565b600061271061137060fa6001600160801b038516613c5f565b61137a9190613c76565b90506000611391826001600160801b038516613b07565b905080156113a3576113a384826129da565b6001600160a01b0388166000818152600d602090815260408220805460018181018355828552928420018a90559290915290546113e09190613b07565b6000878152600e602090815260409182902092909255516001600160801b03851681526001600160a01b03808b16929087169189917f1e776fe7126ecfeacb76aca76f8157f19cbdec27932606211cffb47e5c9bd692910160405180910390a48660010196505050505050506112b0565b50505050610da66001600855565b60006001600160a01b0382166114c95760405162461bcd60e51b815260206004820152602960248201527f4552433732313a2061646472657373207a65726f206973206e6f7420612076616044820152683634b21037bbb732b960b91b6064820152608401610829565b506001600160a01b031660009081526003602052604090205490565b6114ed6127be565b610bab6000612ba4565b6001600160a01b03811660009081526010602052604081205460ff16806106f65750506007546001600160a01b0391821691161490565b600a54600b546000806115418385613b07565b915060015b84811161159d576000818152600c6020526040902060010154600160f81b900460ff16611595576000818152600c6020526040902060010154611592906001600160801b031683613c4c565b91505b600101611546565b5090919293565b6115ac6127be565b610bab612bf6565b60606001805461070b90613abd565b6115cb6127be565b306115d5836110e9565b6001600160a01b03161461162b5760405162461bcd60e51b815260206004820152601b60248201527f546f6b656e206e6f74206f776e656420627920636f6e747261637400000000006044820152606401610829565b610da6308284612876565b610da6338383612c33565b63ffffffff81166000908152600f60209081526040918290208054835181840281018401909452808452606093928301828280156110dd57602002820191906000526020600020908154815260200190600101908083116110c95750505050509050919050565b6116b23383612818565b6116ce5760405162461bcd60e51b815260040161082990613b49565b6116da84848484612d01565b50505050565b6116e8612ac5565b6116f0612b1e565b3360009081526010602052604090205460ff168061171857506007546001600160a01b031633145b61175d5760405162461bcd60e51b81526020600482015260166024820152752737ba1030baba3437b934bd32b21031b932b0ba37b960511b6044820152606401610829565b86801580159061176e575060328111155b6117af5760405162461bcd60e51b8152602060048201526012602482015271496e76616c69642062617463682073697a6560701b6044820152606401610829565b80861480156117bd57508084145b80156117c857508082145b61180c5760405162461bcd60e51b8152602060048201526015602482015274082e4e4c2f240d8cadccee8d040dad2e6dac2e8c6d605b1b6044820152606401610829565b61181c8165e35fa931a000613c5f565b341461183a5760405162461bcd60e51b815260040161082990613bf0565b334260005b83811015611cd1576000600a6000815461185890613b30565b9182905550905060008b8b8481811061187357611873613b1a565b90506020020160208101906118889190613c98565b6001600160801b0316116118ae5760405162461bcd60e51b815260040161082990613bc0565b6103e88787848181106118c3576118c3613b1a565b90506020020160208101906118d89190613cb3565b62ffffff16111561191e5760405162461bcd60e51b815260206004820152601060248201526f0a4def2c2d8e8f240e8dede40d0d2ced60831b6044820152606401610829565b6119288482612d34565b61198a818e8e8581811061193e5761193e613b1a565b90506020028101906119509190613cce565b8080601f016020809104026020016040519081016040528093929190818152602001838380828437600092019190915250612d4e92505050565b6040518061012001604052808281526020018c8c858181106119ae576119ae613b1a565b90506020020160208101906119c39190613c98565b6001600160801b03168152602001846001600160401b031681526020018a8a858181106119f2576119f2613b1a565b9050602002016020810190611a079190613800565b63ffffffff168152602001888885818110611a2457611a24613b1a565b9050602002016020810190611a399190613cb3565b62ffffff9081168252600060208084018290526001600160a01b03808a166040808701829052306060808901829052608098890193909352898652600c8552948190208851815593880151600185018054928a0151938a0151988a015160a08b01511515600160f81b026001600160f81b0391909916600160e01b0262ffffff60e01b1963ffffffff909b16600160c01b029a909a1666ffffffffffffff60c01b196001600160401b03909616600160801b026001600160c01b03199095166001600160801b039094169390931793909317939093161796909617959095169390931790935560c08401516002840180549184166001600160a01b031992831617905560e085015160038501805491851691831691909117905561010090940151600490930180549390921692909316919091179055611b7b90859083612876565b6001600160a01b0384166000818152600d60209081526040822080546001818101835582855292842001859055929091529054611bb89190613b07565b6000828152600e6020526040812091909155600f908a8a85818110611bdf57611bdf613b1a565b9050602002016020810190611bf49190613800565b63ffffffff16815260208082019290925260400160009081208054600181018255908252919020018190558a8a83818110611c3157611c31613b1a565b9050602002016020810190611c469190613c98565b6001600160801b0316846001600160a01b0316827f3a685d9a1b45a5c306d19a967164266e54c7eab749d69889a2fd64d9b2861eca8c8c87818110611c8d57611c8d613b1a565b9050602002016020810190611ca29190613800565b6040805163ffffffff90921682526001600160401b03891660208301520160405180910390a45060010161183f565b50816001600160a01b03168384600a54611ceb9190613b07565b611cf6906001613c4c565b6040517fad1d4f283637316efdab1234480b8ddaaeb879d6c22be571eb501db9fdedb2f590600090a4505050611d2c6001600855565b5050505050505050565b611d3e612ac5565b611d46612b1e565b80600081118015611d595750600a548111155b611d755760405162461bcd60e51b815260040161082990613b96565b6000828152600c602052604090206001810154600160f81b900460ff1615611dd35760405162461bcd60e51b8152602060048201526011602482015270125d195b48185b1c9958591e481cdbdb19607a1b6044820152606401610829565b60018101546001600160801b03163414611e2f5760405162461bcd60e51b815260206004820152601860248201527f496e636f7272656374207061796d656e7420616d6f756e7400000000000000006044820152606401610829565b600281015460018201805460048401546003850180546001600160a01b031916339081179091556001600160f81b038316600160f81b17909355600b80546001600160a01b03958616956001600160801b0385169462ffffff600160e01b9091041693169190600090611ea190613b30565b90915550611eb030858a612876565b6000612710611ec960fa6001600160801b038716613c5f565b611ed39190613c76565b90506000612710611ee962ffffff861687613d14565b6001600160801b0316611efc9190613c76565b9050600081611f14846001600160801b038916613b07565b611f1e9190613b07565b90508015611f3057611f3088826129da565b600082118015611f4857506001600160a01b03841615155b15611f5c57611f5784836129da565b611f6c565b8115611f6c57611f6c88836129da565b6001600160a01b0387166000818152600d602090815260408220805460018181018355828552928420018f9055929091529054611fa99190613b07565b60008c8152600e602090815260409182902092909255516001600160801b03881681526001600160a01b03808a1692908b16918e917f1e776fe7126ecfeacb76aca76f8157f19cbdec27932606211cffb47e5c9bd692910160405180910390a450505050505050505050610b986001600855565b612025613394565b816000811180156120385750600a548111155b6120545760405162461bcd60e51b815260040161082990613b96565b6000838152600c60209081526040918290208251610120810184528154815260018201546001600160801b03811693820193909352600160801b83046001600160401b031693810193909352600160c01b820463ffffffff166060840152600160e01b820462ffffff166080840152600160f81b90910460ff16151560a083015260028101546001600160a01b0390811660c08401526003820154811660e08401526004909101541661010082015291505b50919050565b6060612117826126f1565b6000828152600660205260408120805461213090613abd565b80601f016020809104026020016040519081016040528092919081815260200182805461215c90613abd565b80156121a95780601f1061217e576101008083540402835291602001916121a9565b820191906000526020600020905b81548152906001019060200180831161218c57829003601f168201915b5050505050905060006121c760408051602081019091526000815290565b905080516000036121d9575092915050565b81511561220b5780826040516020016121f3929190613d3f565b60405160208183030381529060405292505050919050565b61221484612e19565b949350505050565b6000612226612ac5565b61222e612b1e565b65e35fa931a00034146122535760405162461bcd60e51b815260040161082990613bf0565b6000846001600160801b03161161227c5760405162461bcd60e51b815260040161082990613bc0565b6103e88262ffffff1611156122c65760405162461bcd60e51b815260206004820152601060248201526f0a4def2c2d8e8f240e8dede40d0d2ced60831b6044820152606401610829565b6000600a600081546122d790613b30565b9182905550905033426122ea8284612d34565b61232a838a8a8080601f016020809104026020016040519081016040528093929190818152602001838380828437600092019190915250612d4e92505050565b604051806101200160405280848152602001886001600160801b03168152602001826001600160401b031681526020018763ffffffff1681526020018662ffffff168152602001600015158152602001836001600160a01b03168152602001306001600160a01b03168152602001836001600160a01b0316815250600c60008581526020019081526020016000206000820151816000015560208201518160010160006101000a8154816001600160801b0302191690836001600160801b0316021790555060408201518160010160106101000a8154816001600160401b0302191690836001600160401b0316021790555060608201518160010160186101000a81548163ffffffff021916908363ffffffff160217905550608082015181600101601c6101000a81548162ffffff021916908362ffffff16021790555060a082015181600101601f6101000a81548160ff02191690831515021790555060c08201518160020160006101000a8154816001600160a01b0302191690836001600160a01b0316021790555060e08201518160030160006101000a8154816001600160a01b0302191690836001600160a01b031602179055506101008201518160040160006101000a8154816001600160a01b0302191690836001600160a01b0316021790555090505061251e823085612876565b6001600160a01b0382166000818152600d6020908152604082208054600181810183558285529284200187905592909152905461255b9190613b07565b6000848152600e602090815260408083209390935563ffffffff8916808352600f825283832080546001810182559084529282902090920186905582519182526001600160401b038416908201526001600160801b038916916001600160a01b0385169186917f3a685d9a1b45a5c306d19a967164266e54c7eab749d69889a2fd64d9b2861eca910160405180910390a4505060016008559695505050505050565b6001600160a01b03918216600090815260056020908152604080832093909416825291909152205460ff1690565b6126336127be565b6001600160a01b0381166126985760405162461bcd60e51b815260206004820152602660248201527f4f776e61626c653a206e6577206f776e657220697320746865207a65726f206160448201526564647265737360d01b6064820152608401610829565b610b9881612ba4565b60006001600160e01b031982166380ac58cd60e01b14806126d257506001600160e01b03198216635b5e139f60e01b145b806106f657506301ffc9a760e01b6001600160e01b03198316146106f6565b6000818152600260205260409020546001600160a01b0316610b985760405162461bcd60e51b8152602060048201526018602482015277115490cdcc8c4e881a5b9d985b1a59081d1bdad95b88125160421b6044820152606401610829565b600081815260046020526040902080546001600160a01b0319166001600160a01b0384169081179091558190612785826110e9565b6001600160a01b03167f8c5be1e5ebec7d5bd14f71427d1e84f3dd0314c0f7b2291e5b200ac8c7c3b92560405160405180910390a45050565b6007546001600160a01b03163314610bab5760405162461bcd60e51b815260206004820181905260248201527f4f776e61626c653a2063616c6c6572206973206e6f7420746865206f776e65726044820152606401610829565b600080612824836110e9565b9050806001600160a01b0316846001600160a01b0316148061284b575061284b81856125fd565b806122145750836001600160a01b03166128648461078e565b6001600160a01b031614949350505050565b826001600160a01b0316612889826110e9565b6001600160a01b0316146128af5760405162461bcd60e51b815260040161082990613d6e565b6001600160a01b0382166129115760405162461bcd60e51b8152602060048201526024808201527f4552433732313a207472616e7366657220746f20746865207a65726f206164646044820152637265737360e01b6064820152608401610829565b826001600160a01b0316612924826110e9565b6001600160a01b03161461294a5760405162461bcd60e51b815260040161082990613d6e565b600081815260046020908152604080832080546001600160a01b03199081169091556001600160a01b0387811680865260038552838620805460001901905590871680865283862080546001019055868652600290945282852080549092168417909155905184937fddf252ad1be2c89b69c2b068fc378daa952ba7f163c4a11628f55a4df523b3ef91a4505050565b6000826001600160a01b03168260405160006040518083038185875af1925050503d8060008114612a27576040519150601f19603f3d011682016040523d82523d6000602084013e612a2c565b606091505b50509050806108ca5760405162461bcd60e51b8152602060048201526013602482015272115512081d1c985b9cd9995c8819985a5b1959606a1b6044820152606401610829565b612a7b612e8d565b6009805460ff191690557f5db9ee0a495bf2e6ff9c91a7834c1ba4fdd244a5e8aa4e537bd38aeae4b073aa335b6040516001600160a01b03909116815260200160405180910390a1565b600260085403612b175760405162461bcd60e51b815260206004820152601f60248201527f5265656e7472616e637947756172643a207265656e7472616e742063616c6c006044820152606401610829565b6002600855565b60095460ff1615610bab5760405162461bcd60e51b815260206004820152601060248201526f14185d5cd8589b194e881c185d5cd95960821b6044820152606401610829565b612b6d81612ed6565b60008181526006602052604090208054612b8690613abd565b159050610b98576000818152600660205260408120610b98916133e0565b600780546001600160a01b038381166001600160a01b0319831681179093556040519116919082907f8be0079c531659141344cd1fd0a4f28419497f9722a3daafe3b4186f6b6457e090600090a35050565b612bfe612b1e565b6009805460ff191660011790557f62e78cea01bee320cd4e420270b5ea74000d11b0c9f74754ebdbfc544b05a258612aa83390565b816001600160a01b0316836001600160a01b031603612c945760405162461bcd60e51b815260206004820152601960248201527f4552433732313a20617070726f766520746f2063616c6c6572000000000000006044820152606401610829565b6001600160a01b03838116600081815260056020908152604080832094871680845294825291829020805460ff191686151590811790915591519182527f17307eab39ab6107e8899845ad3d59bd9653f200f220920489ca2b5937696c31910160405180910390a3505050565b612d0c848484612876565b612d1884848484612f6b565b6116da5760405162461bcd60e51b815260040161082990613db3565b610da682826040518060200160405280600081525061306c565b6000828152600260205260409020546001600160a01b0316612dc95760405162461bcd60e51b815260206004820152602e60248201527f45524337323155524953746f726167653a2055524920736574206f66206e6f6e60448201526d32bc34b9ba32b73a103a37b5b2b760911b6064820152608401610829565b6000828152600660205260409020612de18282613e53565b506040518281527ff8e1a15aba9398e019f0b49df1a4fde98ee17ae345cb5f6b5e2c27f5033e8ce79060200160405180910390a15050565b6060612e24826126f1565b6000612e3b60408051602081019091526000815290565b90506000815111612e5b5760405180602001604052806000815250612e86565b80612e658461309f565b604051602001612e76929190613d3f565b6040516020818303038152906040525b9392505050565b60095460ff16610bab5760405162461bcd60e51b815260206004820152601460248201527314185d5cd8589b194e881b9bdd081c185d5cd95960621b6044820152606401610829565b6000612ee1826110e9565b9050612eec826110e9565b600083815260046020908152604080832080546001600160a01b03199081169091556001600160a01b0385168085526003845282852080546000190190558785526002909352818420805490911690555192935084927fddf252ad1be2c89b69c2b068fc378daa952ba7f163c4a11628f55a4df523b3ef908390a45050565b60006001600160a01b0384163b1561306157604051630a85bd0160e11b81526001600160a01b0385169063150b7a0290612faf903390899088908890600401613f12565b6020604051808303816000875af1925050508015612fea575060408051601f3d908101601f19168201909252612fe791810190613f4f565b60015b613047573d808015613018576040519150601f19603f3d011682016040523d82523d6000602084013e61301d565b606091505b50805160000361303f5760405162461bcd60e51b815260040161082990613db3565b805181602001fd5b6001600160e01b031916630a85bd0160e11b149050612214565b506001949350505050565b6130768383613131565b6130836000848484612f6b565b6108ca5760405162461bcd60e51b815260040161082990613db3565b606060006130ac836132bc565b60010190506000816001600160401b038111156130cb576130cb61381b565b6040519080825280601f01601f1916602001820160405280156130f5576020820181803683370190505b5090508181016020015b600019016f181899199a1a9b1b9c1cb0b131b232b360811b600a86061a8153600a85049450846130ff57509392505050565b6001600160a01b0382166131875760405162461bcd60e51b815260206004820181905260248201527f4552433732313a206d696e7420746f20746865207a65726f20616464726573736044820152606401610829565b6000818152600260205260409020546001600160a01b0316156131ec5760405162461bcd60e51b815260206004820152601c60248201527f4552433732313a20746f6b656e20616c7265616479206d696e746564000000006044820152606401610829565b6000818152600260205260409020546001600160a01b0316156132515760405162461bcd60e51b815260206004820152601c60248201527f4552433732313a20746f6b656e20616c7265616479206d696e746564000000006044820152606401610829565b6001600160a01b038216600081815260036020908152604080832080546001019055848352600290915280822080546001600160a01b0319168417905551839291907fddf252ad1be2c89b69c2b068fc378daa952ba7f163c4a11628f55a4df523b3ef908290a45050565b60008072184f03e93ff9f4daa797ed6e38ed64bf6a1f0160401b83106132fb5772184f03e93ff9f4daa797ed6e38ed64bf6a1f0160401b830492506040015b6d04ee2d6d415b85acef81000000008310613327576d04ee2d6d415b85acef8100000000830492506020015b662386f26fc10000831061334557662386f26fc10000830492506010015b6305f5e100831061335d576305f5e100830492506008015b612710831061337157612710830492506004015b60648310613383576064830492506002015b600a83106106f65760010192915050565b6040805161012081018252600080825260208201819052918101829052606081018290526080810182905260a0810182905260c0810182905260e0810182905261010081019190915290565b5080546133ec90613abd565b6000825580601f106133fc575050565b601f016020900490600052602060002090810190610b9891905b8082111561342a5760008155600101613416565b5090565b6001600160e01b031981168114610b9857600080fd5b60006020828403121561345657600080fd5b8135612e868161342e565b60005b8381101561347c578181015183820152602001613464565b50506000910152565b6000815180845261349d816020860160208601613461565b601f01601f19169290920160200192915050565b602081526000612e866020830184613485565b6000602082840312156134d657600080fd5b5035919050565b80356001600160a01b03811681146134f457600080fd5b919050565b6000806040838503121561350c57600080fd5b613515836134dd565b946020939093013593505050565b805182526001600160801b0360208201511660208301526001600160401b0360408201511660408301526060810151613564606084018263ffffffff169052565b50608081015161357b608084018262ffffff169052565b5060a081015161358f60a084018215159052565b5060c08101516135aa60c08401826001600160a01b03169052565b5060e08101516135c560e08401826001600160a01b03169052565b50610100818101516001600160a01b038116848301526116da565b6020808252825182820181905260009190848201906040850190845b818110156136235761360f838551613523565b9284019261012092909201916001016135fc565b50909695505050505050565b6000806040838503121561364257600080fd5b61364b836134dd565b91506020830135801515811461366057600080fd5b809150509250929050565b60008060006060848603121561368057600080fd5b613689846134dd565b9250613697602085016134dd565b9150604084013590509250925092565b80356001600160801b03811681146134f457600080fd5b600080604083850312156136d157600080fd5b823591506136e1602084016136a7565b90509250929050565b6000602082840312156136fc57600080fd5b612e86826134dd565b6020808252825182820181905260009190848201906040850190845b8181101561362357835183529284019291840191600101613721565b60008083601f84011261374f57600080fd5b5081356001600160401b0381111561376657600080fd5b6020830191508360208260051b850101111561378157600080fd5b9250929050565b6000806020838503121561379b57600080fd5b82356001600160401b038111156137b157600080fd5b6137bd8582860161373d565b90969095509350505050565b600080604083850312156137dc57600080fd5b823591506136e1602084016134dd565b803563ffffffff811681146134f457600080fd5b60006020828403121561381257600080fd5b612e86826137ec565b634e487b7160e01b600052604160045260246000fd5b6000806000806080858703121561384757600080fd5b613850856134dd565b935061385e602086016134dd565b92506040850135915060608501356001600160401b038082111561388157600080fd5b818701915087601f83011261389557600080fd5b8135818111156138a7576138a761381b565b604051601f8201601f19908116603f011681019083821181831017156138cf576138cf61381b565b816040528281528a60208487010111156138e857600080fd5b82602086016020830137600060208483010152809550505050505092959194509250565b6000806000806000806000806080898b03121561392857600080fd5b88356001600160401b038082111561393f57600080fd5b61394b8c838d0161373d565b909a50985060208b013591508082111561396457600080fd5b6139708c838d0161373d565b909850965060408b013591508082111561398957600080fd5b6139958c838d0161373d565b909650945060608b01359150808211156139ae57600080fd5b506139bb8b828c0161373d565b999c989b5096995094979396929594505050565b61012081016106f68284613523565b803562ffffff811681146134f457600080fd5b600080600080600060808688031215613a0957600080fd5b85356001600160401b0380821115613a2057600080fd5b818801915088601f830112613a3457600080fd5b813581811115613a4357600080fd5b896020828501011115613a5557600080fd5b602092830197509550613a6b91880190506136a7565b9250613a79604087016137ec565b9150613a87606087016139de565b90509295509295909350565b60008060408385031215613aa657600080fd5b613aaf836134dd565b91506136e1602084016134dd565b600181811c90821680613ad157607f821691505b60208210810361210657634e487b7160e01b600052602260045260246000fd5b634e487b7160e01b600052601160045260246000fd5b818103818111156106f6576106f6613af1565b634e487b7160e01b600052603260045260246000fd5b600060018201613b4257613b42613af1565b5060010190565b6020808252602d908201527f4552433732313a2063616c6c6572206973206e6f7420746f6b656e206f776e6560408201526c1c881bdc88185c1c1c9bdd9959609a1b606082015260800190565b60208082526010908201526f125b9d985b1a59081d1bdad95b88125160821b604082015260600190565b6020808252601690820152755072696365206d75737420626520706f73697469766560501b604082015260600190565b602080825260159082015274496e636f7272656374206c697374696e672066656560581b604082015260600190565b600081613c2e57613c2e613af1565b506000190190565b634e487b7160e01b600052603160045260246000fd5b808201808211156106f6576106f6613af1565b80820281158282048414176106f6576106f6613af1565b600082613c9357634e487b7160e01b600052601260045260246000fd5b500490565b600060208284031215613caa57600080fd5b612e86826136a7565b600060208284031215613cc557600080fd5b612e86826139de565b6000808335601e19843603018112613ce557600080fd5b8301803591506001600160401b03821115613cff57600080fd5b60200191503681900382131561378157600080fd5b6001600160801b03818116838216028082169190828114613d3757613d37613af1565b505092915050565b60008351613d51818460208801613461565b835190830190613d65818360208801613461565b01949350505050565b60208082526025908201527f4552433732313a207472616e736665722066726f6d20696e636f72726563742060408201526437bbb732b960d91b606082015260800190565b60208082526032908201527f4552433732313a207472616e7366657220746f206e6f6e20455243373231526560408201527131b2b4bb32b91034b6b83632b6b2b73a32b960711b606082015260800190565b601f8211156108ca57600081815260208120601f850160051c81016020861015613e2c5750805b601f850160051c820191505b81811015613e4b57828155600101613e38565b505050505050565b81516001600160401b03811115613e6c57613e6c61381b565b613e8081613e7a8454613abd565b84613e05565b602080601f831160018114613eb55760008415613e9d5750858301515b600019600386901b1c1916600185901b178555613e4b565b600085815260208120601f198616915b82811015613ee457888601518255948401946001909101908401613ec5565b5085821015613f025787850151600019600388901b60f8161c191681555b5050505050600190811b01905550565b6001600160a01b0385811682528416602082015260408101839052608060608201819052600090613f4590830184613485565b9695505050505050565b600060208284031215613f6157600080fd5b8151612e868161342e56fea2646970667358221220bf79cf97ae2c7025ee3726cd2ebf9fa518c5f90851c08ea53ccda9e49dfcf47564736f6c63430008130033",
  "linkReferences": {},
  "deployedLinkReferences": {}
}